{
	"skillsphere-app/rootstock-contracts/skillsphere.sol": {
		"SkillSharing": {
			"abi": [
				{
					"anonymous": false,
					"inputs": [
						{
							"indexed": false,
							"internalType": "uint256",
							"name": "sessionId",
							"type": "uint256"
						},
						{
							"indexed": false,
							"internalType": "address",
							"name": "teacher",
							"type": "address"
						},
						{
							"indexed": false,
							"internalType": "address",
							"name": "learner",
							"type": "address"
						},
						{
							"indexed": false,
							"internalType": "string",
							"name": "skill",
							"type": "string"
						}
					],
					"name": "SessionCreated",
					"type": "event"
				},
				{
					"inputs": [
						{
							"internalType": "address",
							"name": "learner",
							"type": "address"
						},
						{
							"internalType": "string",
							"name": "skill",
							"type": "string"
						}
					],
					"name": "createSession",
					"outputs": [],
					"stateMutability": "nonpayable",
					"type": "function"
				},
				{
					"inputs": [
						{
							"internalType": "uint256",
							"name": "",
							"type": "uint256"
						}
					],
					"name": "sessions",
					"outputs": [
						{
							"internalType": "address",
							"name": "teacher",
							"type": "address"
						},
						{
							"internalType": "address",
							"name": "learner",
							"type": "address"
						},
						{
							"internalType": "string",
							"name": "skill",
							"type": "string"
						}
					],
					"stateMutability": "view",
					"type": "function"
				}
			],
			"devdoc": {
				"kind": "dev",
				"methods": {},
				"version": 1
			},
			"evm": {
				"assembly": "    /* \"skillsphere-app/rootstock-contracts/skillsphere.sol\":57:680  contract SkillSharing {... */\n  mstore(0x40, 0x80)\n  callvalue\n  dup1\n  iszero\n  tag_1\n  jumpi\n  revert(0x00, 0x00)\ntag_1:\n  pop\n  dataSize(sub_0)\n  dup1\n  dataOffset(sub_0)\n  0x00\n  codecopy\n  0x00\n  return\nstop\n\nsub_0: assembly {\n        /* \"skillsphere-app/rootstock-contracts/skillsphere.sol\":57:680  contract SkillSharing {... */\n      mstore(0x40, 0x80)\n      callvalue\n      dup1\n      iszero\n      tag_1\n      jumpi\n      revert(0x00, 0x00)\n    tag_1:\n      pop\n      jumpi(tag_2, lt(calldatasize, 0x04))\n      shr(0xe0, calldataload(0x00))\n      dup1\n      0x2bd7aa29\n      eq\n      tag_3\n      jumpi\n      dup1\n      0x83c4b7a3\n      eq\n      tag_4\n      jumpi\n    tag_2:\n      revert(0x00, 0x00)\n        /* \"skillsphere-app/rootstock-contracts/skillsphere.sol\":465:678  function createSession(address learner, string memory skill) public {... */\n    tag_3:\n      tag_5\n      0x04\n      dup1\n      calldatasize\n      sub\n      dup2\n      add\n      swap1\n      tag_6\n      swap2\n      swap1\n      tag_7\n      jump\t// in\n    tag_6:\n      tag_8\n      jump\t// in\n    tag_5:\n      stop\n        /* \"skillsphere-app/rootstock-contracts/skillsphere.sol\":265:290  Session[] public sessions */\n    tag_4:\n      tag_9\n      0x04\n      dup1\n      calldatasize\n      sub\n      dup2\n      add\n      swap1\n      tag_10\n      swap2\n      swap1\n      tag_11\n      jump\t// in\n    tag_10:\n      tag_12\n      jump\t// in\n    tag_9:\n      mload(0x40)\n      tag_13\n      swap4\n      swap3\n      swap2\n      swap1\n      tag_14\n      jump\t// in\n    tag_13:\n      mload(0x40)\n      dup1\n      swap2\n      sub\n      swap1\n      return\n        /* \"skillsphere-app/rootstock-contracts/skillsphere.sol\":465:678  function createSession(address learner, string memory skill) public {... */\n    tag_8:\n        /* \"skillsphere-app/rootstock-contracts/skillsphere.sol\":543:551  sessions */\n      0x00\n        /* \"skillsphere-app/rootstock-contracts/skillsphere.sol\":557:592  Session(msg.sender, learner, skill) */\n      mload(0x40)\n      dup1\n      0x60\n      add\n      0x40\n      mstore\n      dup1\n        /* \"skillsphere-app/rootstock-contracts/skillsphere.sol\":565:575  msg.sender */\n      caller\n        /* \"skillsphere-app/rootstock-contracts/skillsphere.sol\":557:592  Session(msg.sender, learner, skill) */\n      0xffffffffffffffffffffffffffffffffffffffff\n      and\n      dup2\n      mstore\n      0x20\n      add\n        /* \"skillsphere-app/rootstock-contracts/skillsphere.sol\":577:584  learner */\n      dup5\n        /* \"skillsphere-app/rootstock-contracts/skillsphere.sol\":557:592  Session(msg.sender, learner, skill) */\n      0xffffffffffffffffffffffffffffffffffffffff\n      and\n      dup2\n      mstore\n      0x20\n      add\n        /* \"skillsphere-app/rootstock-contracts/skillsphere.sol\":586:591  skill */\n      dup4\n        /* \"skillsphere-app/rootstock-contracts/skillsphere.sol\":557:592  Session(msg.sender, learner, skill) */\n      dup2\n      mstore\n      pop\n        /* \"skillsphere-app/rootstock-contracts/skillsphere.sol\":543:593  sessions.push(Session(msg.sender, learner, skill)) */\n      swap1\n      dup1\n      0x01\n      dup2\n      sload\n      add\n      dup1\n      dup3\n      sstore\n      dup1\n      swap2\n      pop\n      pop\n      0x01\n      swap1\n      sub\n      swap1\n      0x00\n      mstore\n      keccak256(0x00, 0x20)\n      swap1\n      0x03\n      mul\n      add\n      0x00\n      swap1\n      swap2\n      swap1\n      swap2\n      swap1\n      swap2\n      pop\n      0x00\n      dup3\n      add\n      mload\n      dup2\n      0x00\n      add\n      exp(0x0100, 0x00)\n      dup2\n      sload\n      dup2\n      0xffffffffffffffffffffffffffffffffffffffff\n      mul\n      not\n      and\n      swap1\n      dup4\n      0xffffffffffffffffffffffffffffffffffffffff\n      and\n      mul\n      or\n      swap1\n      sstore\n      pop\n      0x20\n      dup3\n      add\n      mload\n      dup2\n      0x01\n      add\n      exp(0x0100, 0x00)\n      dup2\n      sload\n      dup2\n      0xffffffffffffffffffffffffffffffffffffffff\n      mul\n      not\n      and\n      swap1\n      dup4\n      0xffffffffffffffffffffffffffffffffffffffff\n      and\n      mul\n      or\n      swap1\n      sstore\n      pop\n      0x40\n      dup3\n      add\n      mload\n      dup2\n      0x02\n      add\n      swap1\n      dup2\n      tag_17\n      swap2\n      swap1\n      tag_18\n      jump\t// in\n    tag_17:\n      pop\n      pop\n      pop\n        /* \"skillsphere-app/rootstock-contracts/skillsphere.sol\":608:671  SessionCreated(sessions.length - 1, msg.sender, learner, skill) */\n      0x1dfe82c5d0a1120729f73846b61a1f89fc08cb2a60e15e6597a5cc15a92511fe\n        /* \"skillsphere-app/rootstock-contracts/skillsphere.sol\":641:642  1 */\n      0x01\n        /* \"skillsphere-app/rootstock-contracts/skillsphere.sol\":623:631  sessions */\n      0x00\n        /* \"skillsphere-app/rootstock-contracts/skillsphere.sol\":623:638  sessions.length */\n      dup1\n      sload\n      swap1\n      pop\n        /* \"skillsphere-app/rootstock-contracts/skillsphere.sol\":623:642  sessions.length - 1 */\n      tag_19\n      swap2\n      swap1\n      tag_20\n      jump\t// in\n    tag_19:\n        /* \"skillsphere-app/rootstock-contracts/skillsphere.sol\":644:654  msg.sender */\n      caller\n        /* \"skillsphere-app/rootstock-contracts/skillsphere.sol\":656:663  learner */\n      dup5\n        /* \"skillsphere-app/rootstock-contracts/skillsphere.sol\":665:670  skill */\n      dup5\n        /* \"skillsphere-app/rootstock-contracts/skillsphere.sol\":608:671  SessionCreated(sessions.length - 1, msg.sender, learner, skill) */\n      mload(0x40)\n      tag_21\n      swap5\n      swap4\n      swap3\n      swap2\n      swap1\n      tag_22\n      jump\t// in\n    tag_21:\n      mload(0x40)\n      dup1\n      swap2\n      sub\n      swap1\n      log1\n        /* \"skillsphere-app/rootstock-contracts/skillsphere.sol\":465:678  function createSession(address learner, string memory skill) public {... */\n      pop\n      pop\n      jump\t// out\n        /* \"skillsphere-app/rootstock-contracts/skillsphere.sol\":265:290  Session[] public sessions */\n    tag_12:\n      0x00\n      dup2\n      dup2\n      sload\n      dup2\n      lt\n      tag_23\n      jumpi\n      0x00\n      dup1\n      revert\n    tag_23:\n      swap1\n      0x00\n      mstore\n      keccak256(0x00, 0x20)\n      swap1\n      0x03\n      mul\n      add\n      0x00\n      swap2\n      pop\n      swap1\n      pop\n      dup1\n      0x00\n      add\n      0x00\n      swap1\n      sload\n      swap1\n      0x0100\n      exp\n      swap1\n      div\n      0xffffffffffffffffffffffffffffffffffffffff\n      and\n      swap1\n      dup1\n      0x01\n      add\n      0x00\n      swap1\n      sload\n      swap1\n      0x0100\n      exp\n      swap1\n      div\n      0xffffffffffffffffffffffffffffffffffffffff\n      and\n      swap1\n      dup1\n      0x02\n      add\n      dup1\n      sload\n      tag_25\n      swap1\n      tag_26\n      jump\t// in\n    tag_25:\n      dup1\n      0x1f\n      add\n      0x20\n      dup1\n      swap2\n      div\n      mul\n      0x20\n      add\n      mload(0x40)\n      swap1\n      dup2\n      add\n      0x40\n      mstore\n      dup1\n      swap3\n      swap2\n      swap1\n      dup2\n      dup2\n      mstore\n      0x20\n      add\n      dup3\n      dup1\n      sload\n      tag_27\n      swap1\n      tag_26\n      jump\t// in\n    tag_27:\n      dup1\n      iszero\n      tag_28\n      jumpi\n      dup1\n      0x1f\n      lt\n      tag_29\n      jumpi\n      0x0100\n      dup1\n      dup4\n      sload\n      div\n      mul\n      dup4\n      mstore\n      swap2\n      0x20\n      add\n      swap2\n      jump(tag_28)\n    tag_29:\n      dup3\n      add\n      swap2\n      swap1\n      0x00\n      mstore\n      keccak256(0x00, 0x20)\n      swap1\n    tag_30:\n      dup2\n      sload\n      dup2\n      mstore\n      swap1\n      0x01\n      add\n      swap1\n      0x20\n      add\n      dup1\n      dup4\n      gt\n      tag_30\n      jumpi\n      dup3\n      swap1\n      sub\n      0x1f\n      and\n      dup3\n      add\n      swap2\n    tag_28:\n      pop\n      pop\n      pop\n      pop\n      pop\n      swap1\n      pop\n      dup4\n      jump\t// out\n        /* \"#utility.yul\":7:82   */\n    tag_31:\n        /* \"#utility.yul\":40:46   */\n      0x00\n        /* \"#utility.yul\":73:75   */\n      0x40\n        /* \"#utility.yul\":67:76   */\n      mload\n        /* \"#utility.yul\":57:76   */\n      swap1\n      pop\n        /* \"#utility.yul\":7:82   */\n      swap1\n      jump\t// out\n        /* \"#utility.yul\":88:205   */\n    tag_32:\n        /* \"#utility.yul\":197:198   */\n      0x00\n        /* \"#utility.yul\":194:195   */\n      0x00\n        /* \"#utility.yul\":187:199   */\n      revert\n        /* \"#utility.yul\":211:328   */\n    tag_33:\n        /* \"#utility.yul\":320:321   */\n      0x00\n        /* \"#utility.yul\":317:318   */\n      0x00\n        /* \"#utility.yul\":310:322   */\n      revert\n        /* \"#utility.yul\":334:460   */\n    tag_34:\n        /* \"#utility.yul\":371:378   */\n      0x00\n        /* \"#utility.yul\":411:453   */\n      0xffffffffffffffffffffffffffffffffffffffff\n        /* \"#utility.yul\":404:409   */\n      dup3\n        /* \"#utility.yul\":400:454   */\n      and\n        /* \"#utility.yul\":389:454   */\n      swap1\n      pop\n        /* \"#utility.yul\":334:460   */\n      swap2\n      swap1\n      pop\n      jump\t// out\n        /* \"#utility.yul\":466:562   */\n    tag_35:\n        /* \"#utility.yul\":503:510   */\n      0x00\n        /* \"#utility.yul\":532:556   */\n      tag_80\n        /* \"#utility.yul\":550:555   */\n      dup3\n        /* \"#utility.yul\":532:556   */\n      tag_34\n      jump\t// in\n    tag_80:\n        /* \"#utility.yul\":521:556   */\n      swap1\n      pop\n        /* \"#utility.yul\":466:562   */\n      swap2\n      swap1\n      pop\n      jump\t// out\n        /* \"#utility.yul\":568:690   */\n    tag_36:\n        /* \"#utility.yul\":641:665   */\n      tag_82\n        /* \"#utility.yul\":659:664   */\n      dup2\n        /* \"#utility.yul\":641:665   */\n      tag_35\n      jump\t// in\n    tag_82:\n        /* \"#utility.yul\":634:639   */\n      dup2\n        /* \"#utility.yul\":631:666   */\n      eq\n        /* \"#utility.yul\":621:684   */\n      tag_83\n      jumpi\n        /* \"#utility.yul\":680:681   */\n      0x00\n        /* \"#utility.yul\":677:678   */\n      0x00\n        /* \"#utility.yul\":670:682   */\n      revert\n        /* \"#utility.yul\":621:684   */\n    tag_83:\n        /* \"#utility.yul\":568:690   */\n      pop\n      jump\t// out\n        /* \"#utility.yul\":696:835   */\n    tag_37:\n        /* \"#utility.yul\":742:747   */\n      0x00\n        /* \"#utility.yul\":780:786   */\n      dup2\n        /* \"#utility.yul\":767:787   */\n      calldataload\n        /* \"#utility.yul\":758:787   */\n      swap1\n      pop\n        /* \"#utility.yul\":796:829   */\n      tag_85\n        /* \"#utility.yul\":823:828   */\n      dup2\n        /* \"#utility.yul\":796:829   */\n      tag_36\n      jump\t// in\n    tag_85:\n        /* \"#utility.yul\":696:835   */\n      swap3\n      swap2\n      pop\n      pop\n      jump\t// out\n        /* \"#utility.yul\":841:958   */\n    tag_38:\n        /* \"#utility.yul\":950:951   */\n      0x00\n        /* \"#utility.yul\":947:948   */\n      0x00\n        /* \"#utility.yul\":940:952   */\n      revert\n        /* \"#utility.yul\":964:1081   */\n    tag_39:\n        /* \"#utility.yul\":1073:1074   */\n      0x00\n        /* \"#utility.yul\":1070:1071   */\n      0x00\n        /* \"#utility.yul\":1063:1075   */\n      revert\n        /* \"#utility.yul\":1087:1189   */\n    tag_40:\n        /* \"#utility.yul\":1128:1134   */\n      0x00\n        /* \"#utility.yul\":1179:1181   */\n      0x1f\n        /* \"#utility.yul\":1175:1182   */\n      not\n        /* \"#utility.yul\":1170:1172   */\n      0x1f\n        /* \"#utility.yul\":1163:1168   */\n      dup4\n        /* \"#utility.yul\":1159:1173   */\n      add\n        /* \"#utility.yul\":1155:1183   */\n      and\n        /* \"#utility.yul\":1145:1183   */\n      swap1\n      pop\n        /* \"#utility.yul\":1087:1189   */\n      swap2\n      swap1\n      pop\n      jump\t// out\n        /* \"#utility.yul\":1195:1375   */\n    tag_41:\n        /* \"#utility.yul\":1243:1320   */\n      0x4e487b7100000000000000000000000000000000000000000000000000000000\n        /* \"#utility.yul\":1240:1241   */\n      0x00\n        /* \"#utility.yul\":1233:1321   */\n      mstore\n        /* \"#utility.yul\":1340:1344   */\n      0x41\n        /* \"#utility.yul\":1337:1338   */\n      0x04\n        /* \"#utility.yul\":1330:1345   */\n      mstore\n        /* \"#utility.yul\":1364:1368   */\n      0x24\n        /* \"#utility.yul\":1361:1362   */\n      0x00\n        /* \"#utility.yul\":1354:1369   */\n      revert\n        /* \"#utility.yul\":1381:1662   */\n    tag_42:\n        /* \"#utility.yul\":1464:1491   */\n      tag_91\n        /* \"#utility.yul\":1486:1490   */\n      dup3\n        /* \"#utility.yul\":1464:1491   */\n      tag_40\n      jump\t// in\n    tag_91:\n        /* \"#utility.yul\":1456:1462   */\n      dup2\n        /* \"#utility.yul\":1452:1492   */\n      add\n        /* \"#utility.yul\":1594:1600   */\n      dup2\n        /* \"#utility.yul\":1582:1592   */\n      dup2\n        /* \"#utility.yul\":1579:1601   */\n      lt\n        /* \"#utility.yul\":1558:1576   */\n      0xffffffffffffffff\n        /* \"#utility.yul\":1546:1556   */\n      dup3\n        /* \"#utility.yul\":1543:1577   */\n      gt\n        /* \"#utility.yul\":1540:1602   */\n      or\n        /* \"#utility.yul\":1537:1625   */\n      iszero\n      tag_92\n      jumpi\n        /* \"#utility.yul\":1605:1623   */\n      tag_93\n      tag_41\n      jump\t// in\n    tag_93:\n        /* \"#utility.yul\":1537:1625   */\n    tag_92:\n        /* \"#utility.yul\":1645:1655   */\n      dup1\n        /* \"#utility.yul\":1641:1643   */\n      0x40\n        /* \"#utility.yul\":1634:1656   */\n      mstore\n        /* \"#utility.yul\":1424:1662   */\n      pop\n        /* \"#utility.yul\":1381:1662   */\n      pop\n      pop\n      jump\t// out\n        /* \"#utility.yul\":1668:1797   */\n    tag_43:\n        /* \"#utility.yul\":1702:1708   */\n      0x00\n        /* \"#utility.yul\":1729:1749   */\n      tag_95\n      tag_31\n      jump\t// in\n    tag_95:\n        /* \"#utility.yul\":1719:1749   */\n      swap1\n      pop\n        /* \"#utility.yul\":1758:1791   */\n      tag_96\n        /* \"#utility.yul\":1786:1790   */\n      dup3\n        /* \"#utility.yul\":1778:1784   */\n      dup3\n        /* \"#utility.yul\":1758:1791   */\n      tag_42\n      jump\t// in\n    tag_96:\n        /* \"#utility.yul\":1668:1797   */\n      swap2\n      swap1\n      pop\n      jump\t// out\n        /* \"#utility.yul\":1803:2111   */\n    tag_44:\n        /* \"#utility.yul\":1865:1869   */\n      0x00\n        /* \"#utility.yul\":1955:1973   */\n      0xffffffffffffffff\n        /* \"#utility.yul\":1947:1953   */\n      dup3\n        /* \"#utility.yul\":1944:1974   */\n      gt\n        /* \"#utility.yul\":1941:1997   */\n      iszero\n      tag_98\n      jumpi\n        /* \"#utility.yul\":1977:1995   */\n      tag_99\n      tag_41\n      jump\t// in\n    tag_99:\n        /* \"#utility.yul\":1941:1997   */\n    tag_98:\n        /* \"#utility.yul\":2015:2044   */\n      tag_100\n        /* \"#utility.yul\":2037:2043   */\n      dup3\n        /* \"#utility.yul\":2015:2044   */\n      tag_40\n      jump\t// in\n    tag_100:\n        /* \"#utility.yul\":2007:2044   */\n      swap1\n      pop\n        /* \"#utility.yul\":2099:2103   */\n      0x20\n        /* \"#utility.yul\":2093:2097   */\n      dup2\n        /* \"#utility.yul\":2089:2104   */\n      add\n        /* \"#utility.yul\":2081:2104   */\n      swap1\n      pop\n        /* \"#utility.yul\":1803:2111   */\n      swap2\n      swap1\n      pop\n      jump\t// out\n        /* \"#utility.yul\":2117:2265   */\n    tag_45:\n        /* \"#utility.yul\":2215:2221   */\n      dup3\n        /* \"#utility.yul\":2210:2213   */\n      dup2\n        /* \"#utility.yul\":2205:2208   */\n      dup4\n        /* \"#utility.yul\":2192:2222   */\n      calldatacopy\n        /* \"#utility.yul\":2256:2257   */\n      0x00\n        /* \"#utility.yul\":2247:2253   */\n      dup4\n        /* \"#utility.yul\":2242:2245   */\n      dup4\n        /* \"#utility.yul\":2238:2254   */\n      add\n        /* \"#utility.yul\":2231:2258   */\n      mstore\n        /* \"#utility.yul\":2117:2265   */\n      pop\n      pop\n      pop\n      jump\t// out\n        /* \"#utility.yul\":2271:2696   */\n    tag_46:\n        /* \"#utility.yul\":2349:2354   */\n      0x00\n        /* \"#utility.yul\":2374:2440   */\n      tag_103\n        /* \"#utility.yul\":2390:2439   */\n      tag_104\n        /* \"#utility.yul\":2432:2438   */\n      dup5\n        /* \"#utility.yul\":2390:2439   */\n      tag_44\n      jump\t// in\n    tag_104:\n        /* \"#utility.yul\":2374:2440   */\n      tag_43\n      jump\t// in\n    tag_103:\n        /* \"#utility.yul\":2365:2440   */\n      swap1\n      pop\n        /* \"#utility.yul\":2463:2469   */\n      dup3\n        /* \"#utility.yul\":2456:2461   */\n      dup2\n        /* \"#utility.yul\":2449:2470   */\n      mstore\n        /* \"#utility.yul\":2501:2505   */\n      0x20\n        /* \"#utility.yul\":2494:2499   */\n      dup2\n        /* \"#utility.yul\":2490:2506   */\n      add\n        /* \"#utility.yul\":2539:2542   */\n      dup5\n        /* \"#utility.yul\":2530:2536   */\n      dup5\n        /* \"#utility.yul\":2525:2528   */\n      dup5\n        /* \"#utility.yul\":2521:2537   */\n      add\n        /* \"#utility.yul\":2518:2543   */\n      gt\n        /* \"#utility.yul\":2515:2627   */\n      iszero\n      tag_105\n      jumpi\n        /* \"#utility.yul\":2546:2625   */\n      tag_106\n      tag_39\n      jump\t// in\n    tag_106:\n        /* \"#utility.yul\":2515:2627   */\n    tag_105:\n        /* \"#utility.yul\":2636:2690   */\n      tag_107\n        /* \"#utility.yul\":2683:2689   */\n      dup5\n        /* \"#utility.yul\":2678:2681   */\n      dup3\n        /* \"#utility.yul\":2673:2676   */\n      dup6\n        /* \"#utility.yul\":2636:2690   */\n      tag_45\n      jump\t// in\n    tag_107:\n        /* \"#utility.yul\":2355:2696   */\n      pop\n        /* \"#utility.yul\":2271:2696   */\n      swap4\n      swap3\n      pop\n      pop\n      pop\n      jump\t// out\n        /* \"#utility.yul\":2716:3056   */\n    tag_47:\n        /* \"#utility.yul\":2772:2777   */\n      0x00\n        /* \"#utility.yul\":2821:2824   */\n      dup3\n        /* \"#utility.yul\":2814:2818   */\n      0x1f\n        /* \"#utility.yul\":2806:2812   */\n      dup4\n        /* \"#utility.yul\":2802:2819   */\n      add\n        /* \"#utility.yul\":2798:2825   */\n      slt\n        /* \"#utility.yul\":2788:2910   */\n      tag_109\n      jumpi\n        /* \"#utility.yul\":2829:2908   */\n      tag_110\n      tag_38\n      jump\t// in\n    tag_110:\n        /* \"#utility.yul\":2788:2910   */\n    tag_109:\n        /* \"#utility.yul\":2946:2952   */\n      dup2\n        /* \"#utility.yul\":2933:2953   */\n      calldataload\n        /* \"#utility.yul\":2971:3050   */\n      tag_111\n        /* \"#utility.yul\":3046:3049   */\n      dup5\n        /* \"#utility.yul\":3038:3044   */\n      dup3\n        /* \"#utility.yul\":3031:3035   */\n      0x20\n        /* \"#utility.yul\":3023:3029   */\n      dup7\n        /* \"#utility.yul\":3019:3036   */\n      add\n        /* \"#utility.yul\":2971:3050   */\n      tag_46\n      jump\t// in\n    tag_111:\n        /* \"#utility.yul\":2962:3050   */\n      swap2\n      pop\n        /* \"#utility.yul\":2778:3056   */\n      pop\n        /* \"#utility.yul\":2716:3056   */\n      swap3\n      swap2\n      pop\n      pop\n      jump\t// out\n        /* \"#utility.yul\":3062:3716   */\n    tag_7:\n        /* \"#utility.yul\":3140:3146   */\n      0x00\n        /* \"#utility.yul\":3148:3154   */\n      0x00\n        /* \"#utility.yul\":3197:3199   */\n      0x40\n        /* \"#utility.yul\":3185:3194   */\n      dup4\n        /* \"#utility.yul\":3176:3183   */\n      dup6\n        /* \"#utility.yul\":3172:3195   */\n      sub\n        /* \"#utility.yul\":3168:3200   */\n      slt\n        /* \"#utility.yul\":3165:3284   */\n      iszero\n      tag_113\n      jumpi\n        /* \"#utility.yul\":3203:3282   */\n      tag_114\n      tag_32\n      jump\t// in\n    tag_114:\n        /* \"#utility.yul\":3165:3284   */\n    tag_113:\n        /* \"#utility.yul\":3323:3324   */\n      0x00\n        /* \"#utility.yul\":3348:3401   */\n      tag_115\n        /* \"#utility.yul\":3393:3400   */\n      dup6\n        /* \"#utility.yul\":3384:3390   */\n      dup3\n        /* \"#utility.yul\":3373:3382   */\n      dup7\n        /* \"#utility.yul\":3369:3391   */\n      add\n        /* \"#utility.yul\":3348:3401   */\n      tag_37\n      jump\t// in\n    tag_115:\n        /* \"#utility.yul\":3338:3401   */\n      swap3\n      pop\n        /* \"#utility.yul\":3294:3411   */\n      pop\n        /* \"#utility.yul\":3478:3480   */\n      0x20\n        /* \"#utility.yul\":3467:3476   */\n      dup4\n        /* \"#utility.yul\":3463:3481   */\n      add\n        /* \"#utility.yul\":3450:3482   */\n      calldataload\n        /* \"#utility.yul\":3509:3527   */\n      0xffffffffffffffff\n        /* \"#utility.yul\":3501:3507   */\n      dup2\n        /* \"#utility.yul\":3498:3528   */\n      gt\n        /* \"#utility.yul\":3495:3612   */\n      iszero\n      tag_116\n      jumpi\n        /* \"#utility.yul\":3531:3610   */\n      tag_117\n      tag_33\n      jump\t// in\n    tag_117:\n        /* \"#utility.yul\":3495:3612   */\n    tag_116:\n        /* \"#utility.yul\":3636:3699   */\n      tag_118\n        /* \"#utility.yul\":3691:3698   */\n      dup6\n        /* \"#utility.yul\":3682:3688   */\n      dup3\n        /* \"#utility.yul\":3671:3680   */\n      dup7\n        /* \"#utility.yul\":3667:3689   */\n      add\n        /* \"#utility.yul\":3636:3699   */\n      tag_47\n      jump\t// in\n    tag_118:\n        /* \"#utility.yul\":3626:3699   */\n      swap2\n      pop\n        /* \"#utility.yul\":3421:3709   */\n      pop\n        /* \"#utility.yul\":3062:3716   */\n      swap3\n      pop\n      swap3\n      swap1\n      pop\n      jump\t// out\n        /* \"#utility.yul\":3722:3799   */\n    tag_48:\n        /* \"#utility.yul\":3759:3766   */\n      0x00\n        /* \"#utility.yul\":3788:3793   */\n      dup2\n        /* \"#utility.yul\":3777:3793   */\n      swap1\n      pop\n        /* \"#utility.yul\":3722:3799   */\n      swap2\n      swap1\n      pop\n      jump\t// out\n        /* \"#utility.yul\":3805:3927   */\n    tag_49:\n        /* \"#utility.yul\":3878:3902   */\n      tag_121\n        /* \"#utility.yul\":3896:3901   */\n      dup2\n        /* \"#utility.yul\":3878:3902   */\n      tag_48\n      jump\t// in\n    tag_121:\n        /* \"#utility.yul\":3871:3876   */\n      dup2\n        /* \"#utility.yul\":3868:3903   */\n      eq\n        /* \"#utility.yul\":3858:3921   */\n      tag_122\n      jumpi\n        /* \"#utility.yul\":3917:3918   */\n      0x00\n        /* \"#utility.yul\":3914:3915   */\n      0x00\n        /* \"#utility.yul\":3907:3919   */\n      revert\n        /* \"#utility.yul\":3858:3921   */\n    tag_122:\n        /* \"#utility.yul\":3805:3927   */\n      pop\n      jump\t// out\n        /* \"#utility.yul\":3933:4072   */\n    tag_50:\n        /* \"#utility.yul\":3979:3984   */\n      0x00\n        /* \"#utility.yul\":4017:4023   */\n      dup2\n        /* \"#utility.yul\":4004:4024   */\n      calldataload\n        /* \"#utility.yul\":3995:4024   */\n      swap1\n      pop\n        /* \"#utility.yul\":4033:4066   */\n      tag_124\n        /* \"#utility.yul\":4060:4065   */\n      dup2\n        /* \"#utility.yul\":4033:4066   */\n      tag_49\n      jump\t// in\n    tag_124:\n        /* \"#utility.yul\":3933:4072   */\n      swap3\n      swap2\n      pop\n      pop\n      jump\t// out\n        /* \"#utility.yul\":4078:4407   */\n    tag_11:\n        /* \"#utility.yul\":4137:4143   */\n      0x00\n        /* \"#utility.yul\":4186:4188   */\n      0x20\n        /* \"#utility.yul\":4174:4183   */\n      dup3\n        /* \"#utility.yul\":4165:4172   */\n      dup5\n        /* \"#utility.yul\":4161:4184   */\n      sub\n        /* \"#utility.yul\":4157:4189   */\n      slt\n        /* \"#utility.yul\":4154:4273   */\n      iszero\n      tag_126\n      jumpi\n        /* \"#utility.yul\":4192:4271   */\n      tag_127\n      tag_32\n      jump\t// in\n    tag_127:\n        /* \"#utility.yul\":4154:4273   */\n    tag_126:\n        /* \"#utility.yul\":4312:4313   */\n      0x00\n        /* \"#utility.yul\":4337:4390   */\n      tag_128\n        /* \"#utility.yul\":4382:4389   */\n      dup5\n        /* \"#utility.yul\":4373:4379   */\n      dup3\n        /* \"#utility.yul\":4362:4371   */\n      dup6\n        /* \"#utility.yul\":4358:4380   */\n      add\n        /* \"#utility.yul\":4337:4390   */\n      tag_50\n      jump\t// in\n    tag_128:\n        /* \"#utility.yul\":4327:4390   */\n      swap2\n      pop\n        /* \"#utility.yul\":4283:4400   */\n      pop\n        /* \"#utility.yul\":4078:4407   */\n      swap3\n      swap2\n      pop\n      pop\n      jump\t// out\n        /* \"#utility.yul\":4413:4531   */\n    tag_51:\n        /* \"#utility.yul\":4500:4524   */\n      tag_130\n        /* \"#utility.yul\":4518:4523   */\n      dup2\n        /* \"#utility.yul\":4500:4524   */\n      tag_35\n      jump\t// in\n    tag_130:\n        /* \"#utility.yul\":4495:4498   */\n      dup3\n        /* \"#utility.yul\":4488:4525   */\n      mstore\n        /* \"#utility.yul\":4413:4531   */\n      pop\n      pop\n      jump\t// out\n        /* \"#utility.yul\":4537:4636   */\n    tag_52:\n        /* \"#utility.yul\":4589:4595   */\n      0x00\n        /* \"#utility.yul\":4623:4628   */\n      dup2\n        /* \"#utility.yul\":4617:4629   */\n      mload\n        /* \"#utility.yul\":4607:4629   */\n      swap1\n      pop\n        /* \"#utility.yul\":4537:4636   */\n      swap2\n      swap1\n      pop\n      jump\t// out\n        /* \"#utility.yul\":4642:4811   */\n    tag_53:\n        /* \"#utility.yul\":4726:4737   */\n      0x00\n        /* \"#utility.yul\":4760:4766   */\n      dup3\n        /* \"#utility.yul\":4755:4758   */\n      dup3\n        /* \"#utility.yul\":4748:4767   */\n      mstore\n        /* \"#utility.yul\":4800:4804   */\n      0x20\n        /* \"#utility.yul\":4795:4798   */\n      dup3\n        /* \"#utility.yul\":4791:4805   */\n      add\n        /* \"#utility.yul\":4776:4805   */\n      swap1\n      pop\n        /* \"#utility.yul\":4642:4811   */\n      swap3\n      swap2\n      pop\n      pop\n      jump\t// out\n        /* \"#utility.yul\":4817:4956   */\n    tag_54:\n        /* \"#utility.yul\":4906:4912   */\n      dup3\n        /* \"#utility.yul\":4901:4904   */\n      dup2\n        /* \"#utility.yul\":4896:4899   */\n      dup4\n        /* \"#utility.yul\":4890:4913   */\n      mcopy\n        /* \"#utility.yul\":4947:4948   */\n      0x00\n        /* \"#utility.yul\":4938:4944   */\n      dup4\n        /* \"#utility.yul\":4933:4936   */\n      dup4\n        /* \"#utility.yul\":4929:4945   */\n      add\n        /* \"#utility.yul\":4922:4949   */\n      mstore\n        /* \"#utility.yul\":4817:4956   */\n      pop\n      pop\n      pop\n      jump\t// out\n        /* \"#utility.yul\":4962:5339   */\n    tag_55:\n        /* \"#utility.yul\":5050:5053   */\n      0x00\n        /* \"#utility.yul\":5078:5117   */\n      tag_135\n        /* \"#utility.yul\":5111:5116   */\n      dup3\n        /* \"#utility.yul\":5078:5117   */\n      tag_52\n      jump\t// in\n    tag_135:\n        /* \"#utility.yul\":5133:5204   */\n      tag_136\n        /* \"#utility.yul\":5197:5203   */\n      dup2\n        /* \"#utility.yul\":5192:5195   */\n      dup6\n        /* \"#utility.yul\":5133:5204   */\n      tag_53\n      jump\t// in\n    tag_136:\n        /* \"#utility.yul\":5126:5204   */\n      swap4\n      pop\n        /* \"#utility.yul\":5213:5278   */\n      tag_137\n        /* \"#utility.yul\":5271:5277   */\n      dup2\n        /* \"#utility.yul\":5266:5269   */\n      dup6\n        /* \"#utility.yul\":5259:5263   */\n      0x20\n        /* \"#utility.yul\":5252:5257   */\n      dup7\n        /* \"#utility.yul\":5248:5264   */\n      add\n        /* \"#utility.yul\":5213:5278   */\n      tag_54\n      jump\t// in\n    tag_137:\n        /* \"#utility.yul\":5303:5332   */\n      tag_138\n        /* \"#utility.yul\":5325:5331   */\n      dup2\n        /* \"#utility.yul\":5303:5332   */\n      tag_40\n      jump\t// in\n    tag_138:\n        /* \"#utility.yul\":5298:5301   */\n      dup5\n        /* \"#utility.yul\":5294:5333   */\n      add\n        /* \"#utility.yul\":5287:5333   */\n      swap2\n      pop\n        /* \"#utility.yul\":5054:5339   */\n      pop\n        /* \"#utility.yul\":4962:5339   */\n      swap3\n      swap2\n      pop\n      pop\n      jump\t// out\n        /* \"#utility.yul\":5345:5878   */\n    tag_14:\n        /* \"#utility.yul\":5514:5518   */\n      0x00\n        /* \"#utility.yul\":5552:5554   */\n      0x60\n        /* \"#utility.yul\":5541:5550   */\n      dup3\n        /* \"#utility.yul\":5537:5555   */\n      add\n        /* \"#utility.yul\":5529:5555   */\n      swap1\n      pop\n        /* \"#utility.yul\":5565:5636   */\n      tag_140\n        /* \"#utility.yul\":5633:5634   */\n      0x00\n        /* \"#utility.yul\":5622:5631   */\n      dup4\n        /* \"#utility.yul\":5618:5635   */\n      add\n        /* \"#utility.yul\":5609:5615   */\n      dup7\n        /* \"#utility.yul\":5565:5636   */\n      tag_51\n      jump\t// in\n    tag_140:\n        /* \"#utility.yul\":5646:5718   */\n      tag_141\n        /* \"#utility.yul\":5714:5716   */\n      0x20\n        /* \"#utility.yul\":5703:5712   */\n      dup4\n        /* \"#utility.yul\":5699:5717   */\n      add\n        /* \"#utility.yul\":5690:5696   */\n      dup6\n        /* \"#utility.yul\":5646:5718   */\n      tag_51\n      jump\t// in\n    tag_141:\n        /* \"#utility.yul\":5765:5774   */\n      dup2\n        /* \"#utility.yul\":5759:5763   */\n      dup2\n        /* \"#utility.yul\":5755:5775   */\n      sub\n        /* \"#utility.yul\":5750:5752   */\n      0x40\n        /* \"#utility.yul\":5739:5748   */\n      dup4\n        /* \"#utility.yul\":5735:5753   */\n      add\n        /* \"#utility.yul\":5728:5776   */\n      mstore\n        /* \"#utility.yul\":5793:5871   */\n      tag_142\n        /* \"#utility.yul\":5866:5870   */\n      dup2\n        /* \"#utility.yul\":5857:5863   */\n      dup5\n        /* \"#utility.yul\":5793:5871   */\n      tag_55\n      jump\t// in\n    tag_142:\n        /* \"#utility.yul\":5785:5871   */\n      swap1\n      pop\n        /* \"#utility.yul\":5345:5878   */\n      swap5\n      swap4\n      pop\n      pop\n      pop\n      pop\n      jump\t// out\n        /* \"#utility.yul\":5884:6064   */\n    tag_56:\n        /* \"#utility.yul\":5932:6009   */\n      0x4e487b7100000000000000000000000000000000000000000000000000000000\n        /* \"#utility.yul\":5929:5930   */\n      0x00\n        /* \"#utility.yul\":5922:6010   */\n      mstore\n        /* \"#utility.yul\":6029:6033   */\n      0x22\n        /* \"#utility.yul\":6026:6027   */\n      0x04\n        /* \"#utility.yul\":6019:6034   */\n      mstore\n        /* \"#utility.yul\":6053:6057   */\n      0x24\n        /* \"#utility.yul\":6050:6051   */\n      0x00\n        /* \"#utility.yul\":6043:6058   */\n      revert\n        /* \"#utility.yul\":6070:6390   */\n    tag_26:\n        /* \"#utility.yul\":6114:6120   */\n      0x00\n        /* \"#utility.yul\":6151:6152   */\n      0x02\n        /* \"#utility.yul\":6145:6149   */\n      dup3\n        /* \"#utility.yul\":6141:6153   */\n      div\n        /* \"#utility.yul\":6131:6153   */\n      swap1\n      pop\n        /* \"#utility.yul\":6198:6199   */\n      0x01\n        /* \"#utility.yul\":6192:6196   */\n      dup3\n        /* \"#utility.yul\":6188:6200   */\n      and\n        /* \"#utility.yul\":6219:6237   */\n      dup1\n        /* \"#utility.yul\":6209:6290   */\n      tag_145\n      jumpi\n        /* \"#utility.yul\":6275:6279   */\n      0x7f\n        /* \"#utility.yul\":6267:6273   */\n      dup3\n        /* \"#utility.yul\":6263:6280   */\n      and\n        /* \"#utility.yul\":6253:6280   */\n      swap2\n      pop\n        /* \"#utility.yul\":6209:6290   */\n    tag_145:\n        /* \"#utility.yul\":6337:6339   */\n      0x20\n        /* \"#utility.yul\":6329:6335   */\n      dup3\n        /* \"#utility.yul\":6326:6340   */\n      lt\n        /* \"#utility.yul\":6306:6324   */\n      dup2\n        /* \"#utility.yul\":6303:6341   */\n      sub\n        /* \"#utility.yul\":6300:6384   */\n      tag_146\n      jumpi\n        /* \"#utility.yul\":6356:6374   */\n      tag_147\n      tag_56\n      jump\t// in\n    tag_147:\n        /* \"#utility.yul\":6300:6384   */\n    tag_146:\n        /* \"#utility.yul\":6121:6390   */\n      pop\n        /* \"#utility.yul\":6070:6390   */\n      swap2\n      swap1\n      pop\n      jump\t// out\n        /* \"#utility.yul\":6396:6537   */\n    tag_57:\n        /* \"#utility.yul\":6445:6449   */\n      0x00\n        /* \"#utility.yul\":6468:6471   */\n      dup2\n        /* \"#utility.yul\":6460:6471   */\n      swap1\n      pop\n        /* \"#utility.yul\":6491:6494   */\n      dup2\n        /* \"#utility.yul\":6488:6489   */\n      0x00\n        /* \"#utility.yul\":6481:6495   */\n      mstore\n        /* \"#utility.yul\":6525:6529   */\n      0x20\n        /* \"#utility.yul\":6522:6523   */\n      0x00\n        /* \"#utility.yul\":6512:6530   */\n      keccak256\n        /* \"#utility.yul\":6504:6530   */\n      swap1\n      pop\n        /* \"#utility.yul\":6396:6537   */\n      swap2\n      swap1\n      pop\n      jump\t// out\n        /* \"#utility.yul\":6543:6636   */\n    tag_58:\n        /* \"#utility.yul\":6580:6586   */\n      0x00\n        /* \"#utility.yul\":6627:6629   */\n      0x20\n        /* \"#utility.yul\":6622:6624   */\n      0x1f\n        /* \"#utility.yul\":6615:6620   */\n      dup4\n        /* \"#utility.yul\":6611:6625   */\n      add\n        /* \"#utility.yul\":6607:6630   */\n      div\n        /* \"#utility.yul\":6597:6630   */\n      swap1\n      pop\n        /* \"#utility.yul\":6543:6636   */\n      swap2\n      swap1\n      pop\n      jump\t// out\n        /* \"#utility.yul\":6642:6749   */\n    tag_59:\n        /* \"#utility.yul\":6686:6694   */\n      0x00\n        /* \"#utility.yul\":6736:6741   */\n      dup3\n        /* \"#utility.yul\":6730:6734   */\n      dup3\n        /* \"#utility.yul\":6726:6742   */\n      shl\n        /* \"#utility.yul\":6705:6742   */\n      swap1\n      pop\n        /* \"#utility.yul\":6642:6749   */\n      swap3\n      swap2\n      pop\n      pop\n      jump\t// out\n        /* \"#utility.yul\":6755:7148   */\n    tag_60:\n        /* \"#utility.yul\":6824:6830   */\n      0x00\n        /* \"#utility.yul\":6874:6875   */\n      0x08\n        /* \"#utility.yul\":6862:6872   */\n      dup4\n        /* \"#utility.yul\":6858:6876   */\n      mul\n        /* \"#utility.yul\":6897:6994   */\n      tag_152\n        /* \"#utility.yul\":6927:6993   */\n      0xffffffffffffffffffffffffffffffffffffffffffffffffffffffffffffffff\n        /* \"#utility.yul\":6916:6925   */\n      dup3\n        /* \"#utility.yul\":6897:6994   */\n      tag_59\n      jump\t// in\n    tag_152:\n        /* \"#utility.yul\":7015:7054   */\n      tag_153\n        /* \"#utility.yul\":7045:7053   */\n      dup7\n        /* \"#utility.yul\":7034:7043   */\n      dup4\n        /* \"#utility.yul\":7015:7054   */\n      tag_59\n      jump\t// in\n    tag_153:\n        /* \"#utility.yul\":7003:7054   */\n      swap6\n      pop\n        /* \"#utility.yul\":7087:7091   */\n      dup1\n        /* \"#utility.yul\":7083:7092   */\n      not\n        /* \"#utility.yul\":7076:7081   */\n      dup5\n        /* \"#utility.yul\":7072:7093   */\n      and\n        /* \"#utility.yul\":7063:7093   */\n      swap4\n      pop\n        /* \"#utility.yul\":7136:7140   */\n      dup1\n        /* \"#utility.yul\":7126:7134   */\n      dup7\n        /* \"#utility.yul\":7122:7141   */\n      and\n        /* \"#utility.yul\":7115:7120   */\n      dup5\n        /* \"#utility.yul\":7112:7142   */\n      or\n        /* \"#utility.yul\":7102:7142   */\n      swap3\n      pop\n        /* \"#utility.yul\":6831:7148   */\n      pop\n      pop\n        /* \"#utility.yul\":6755:7148   */\n      swap4\n      swap3\n      pop\n      pop\n      pop\n      jump\t// out\n        /* \"#utility.yul\":7154:7214   */\n    tag_61:\n        /* \"#utility.yul\":7182:7185   */\n      0x00\n        /* \"#utility.yul\":7203:7208   */\n      dup2\n        /* \"#utility.yul\":7196:7208   */\n      swap1\n      pop\n        /* \"#utility.yul\":7154:7214   */\n      swap2\n      swap1\n      pop\n      jump\t// out\n        /* \"#utility.yul\":7220:7362   */\n    tag_62:\n        /* \"#utility.yul\":7270:7279   */\n      0x00\n        /* \"#utility.yul\":7303:7356   */\n      tag_156\n        /* \"#utility.yul\":7321:7355   */\n      tag_157\n        /* \"#utility.yul\":7330:7354   */\n      tag_158\n        /* \"#utility.yul\":7348:7353   */\n      dup5\n        /* \"#utility.yul\":7330:7354   */\n      tag_48\n      jump\t// in\n    tag_158:\n        /* \"#utility.yul\":7321:7355   */\n      tag_61\n      jump\t// in\n    tag_157:\n        /* \"#utility.yul\":7303:7356   */\n      tag_48\n      jump\t// in\n    tag_156:\n        /* \"#utility.yul\":7290:7356   */\n      swap1\n      pop\n        /* \"#utility.yul\":7220:7362   */\n      swap2\n      swap1\n      pop\n      jump\t// out\n        /* \"#utility.yul\":7368:7443   */\n    tag_63:\n        /* \"#utility.yul\":7411:7414   */\n      0x00\n        /* \"#utility.yul\":7432:7437   */\n      dup2\n        /* \"#utility.yul\":7425:7437   */\n      swap1\n      pop\n        /* \"#utility.yul\":7368:7443   */\n      swap2\n      swap1\n      pop\n      jump\t// out\n        /* \"#utility.yul\":7449:7718   */\n    tag_64:\n        /* \"#utility.yul\":7559:7598   */\n      tag_161\n        /* \"#utility.yul\":7590:7597   */\n      dup4\n        /* \"#utility.yul\":7559:7598   */\n      tag_62\n      jump\t// in\n    tag_161:\n        /* \"#utility.yul\":7620:7711   */\n      tag_162\n        /* \"#utility.yul\":7669:7710   */\n      tag_163\n        /* \"#utility.yul\":7693:7709   */\n      dup3\n        /* \"#utility.yul\":7669:7710   */\n      tag_63\n      jump\t// in\n    tag_163:\n        /* \"#utility.yul\":7661:7667   */\n      dup5\n        /* \"#utility.yul\":7654:7658   */\n      dup5\n        /* \"#utility.yul\":7648:7659   */\n      sload\n        /* \"#utility.yul\":7620:7711   */\n      tag_60\n      jump\t// in\n    tag_162:\n        /* \"#utility.yul\":7614:7618   */\n      dup3\n        /* \"#utility.yul\":7607:7712   */\n      sstore\n        /* \"#utility.yul\":7525:7718   */\n      pop\n        /* \"#utility.yul\":7449:7718   */\n      pop\n      pop\n      pop\n      jump\t// out\n        /* \"#utility.yul\":7724:7797   */\n    tag_65:\n        /* \"#utility.yul\":7769:7772   */\n      0x00\n        /* \"#utility.yul\":7790:7791   */\n      0x00\n        /* \"#utility.yul\":7783:7791   */\n      swap1\n      pop\n        /* \"#utility.yul\":7724:7797   */\n      swap1\n      jump\t// out\n        /* \"#utility.yul\":7803:7992   */\n    tag_66:\n        /* \"#utility.yul\":7880:7912   */\n      tag_166\n      tag_65\n      jump\t// in\n    tag_166:\n        /* \"#utility.yul\":7921:7986   */\n      tag_167\n        /* \"#utility.yul\":7979:7985   */\n      dup2\n        /* \"#utility.yul\":7971:7977   */\n      dup5\n        /* \"#utility.yul\":7965:7969   */\n      dup5\n        /* \"#utility.yul\":7921:7986   */\n      tag_64\n      jump\t// in\n    tag_167:\n        /* \"#utility.yul\":7856:7992   */\n      pop\n        /* \"#utility.yul\":7803:7992   */\n      pop\n      pop\n      jump\t// out\n        /* \"#utility.yul\":7998:8184   */\n    tag_67:\n        /* \"#utility.yul\":8058:8178   */\n    tag_169:\n        /* \"#utility.yul\":8075:8078   */\n      dup2\n        /* \"#utility.yul\":8068:8073   */\n      dup2\n        /* \"#utility.yul\":8065:8079   */\n      lt\n        /* \"#utility.yul\":8058:8178   */\n      iszero\n      tag_171\n      jumpi\n        /* \"#utility.yul\":8129:8168   */\n      tag_172\n        /* \"#utility.yul\":8166:8167   */\n      0x00\n        /* \"#utility.yul\":8159:8164   */\n      dup3\n        /* \"#utility.yul\":8129:8168   */\n      tag_66\n      jump\t// in\n    tag_172:\n        /* \"#utility.yul\":8102:8103   */\n      0x01\n        /* \"#utility.yul\":8095:8100   */\n      dup2\n        /* \"#utility.yul\":8091:8104   */\n      add\n        /* \"#utility.yul\":8082:8104   */\n      swap1\n      pop\n        /* \"#utility.yul\":8058:8178   */\n      jump(tag_169)\n    tag_171:\n        /* \"#utility.yul\":7998:8184   */\n      pop\n      pop\n      jump\t// out\n        /* \"#utility.yul\":8190:8733   */\n    tag_68:\n        /* \"#utility.yul\":8291:8293   */\n      0x1f\n        /* \"#utility.yul\":8286:8289   */\n      dup3\n        /* \"#utility.yul\":8283:8294   */\n      gt\n        /* \"#utility.yul\":8280:8726   */\n      iszero\n      tag_174\n      jumpi\n        /* \"#utility.yul\":8325:8363   */\n      tag_175\n        /* \"#utility.yul\":8357:8362   */\n      dup2\n        /* \"#utility.yul\":8325:8363   */\n      tag_57\n      jump\t// in\n    tag_175:\n        /* \"#utility.yul\":8409:8438   */\n      tag_176\n        /* \"#utility.yul\":8427:8437   */\n      dup5\n        /* \"#utility.yul\":8409:8438   */\n      tag_58\n      jump\t// in\n    tag_176:\n        /* \"#utility.yul\":8399:8407   */\n      dup2\n        /* \"#utility.yul\":8395:8439   */\n      add\n        /* \"#utility.yul\":8592:8594   */\n      0x20\n        /* \"#utility.yul\":8580:8590   */\n      dup6\n        /* \"#utility.yul\":8577:8595   */\n      lt\n        /* \"#utility.yul\":8574:8623   */\n      iszero\n      tag_177\n      jumpi\n        /* \"#utility.yul\":8613:8621   */\n      dup2\n        /* \"#utility.yul\":8598:8621   */\n      swap1\n      pop\n        /* \"#utility.yul\":8574:8623   */\n    tag_177:\n        /* \"#utility.yul\":8636:8716   */\n      tag_178\n        /* \"#utility.yul\":8692:8714   */\n      tag_179\n        /* \"#utility.yul\":8710:8713   */\n      dup6\n        /* \"#utility.yul\":8692:8714   */\n      tag_58\n      jump\t// in\n    tag_179:\n        /* \"#utility.yul\":8682:8690   */\n      dup4\n        /* \"#utility.yul\":8678:8715   */\n      add\n        /* \"#utility.yul\":8665:8676   */\n      dup3\n        /* \"#utility.yul\":8636:8716   */\n      tag_67\n      jump\t// in\n    tag_178:\n        /* \"#utility.yul\":8295:8726   */\n      pop\n      pop\n        /* \"#utility.yul\":8280:8726   */\n    tag_174:\n        /* \"#utility.yul\":8190:8733   */\n      pop\n      pop\n      pop\n      jump\t// out\n        /* \"#utility.yul\":8739:8856   */\n    tag_69:\n        /* \"#utility.yul\":8793:8801   */\n      0x00\n        /* \"#utility.yul\":8843:8848   */\n      dup3\n        /* \"#utility.yul\":8837:8841   */\n      dup3\n        /* \"#utility.yul\":8833:8849   */\n      shr\n        /* \"#utility.yul\":8812:8849   */\n      swap1\n      pop\n        /* \"#utility.yul\":8739:8856   */\n      swap3\n      swap2\n      pop\n      pop\n      jump\t// out\n        /* \"#utility.yul\":8862:9031   */\n    tag_70:\n        /* \"#utility.yul\":8906:8912   */\n      0x00\n        /* \"#utility.yul\":8939:8990   */\n      tag_182\n        /* \"#utility.yul\":8987:8988   */\n      0x00\n        /* \"#utility.yul\":8983:8989   */\n      not\n        /* \"#utility.yul\":8975:8980   */\n      dup5\n        /* \"#utility.yul\":8972:8973   */\n      0x08\n        /* \"#utility.yul\":8968:8981   */\n      mul\n        /* \"#utility.yul\":8939:8990   */\n      tag_69\n      jump\t// in\n    tag_182:\n        /* \"#utility.yul\":8935:8991   */\n      not\n        /* \"#utility.yul\":9020:9024   */\n      dup1\n        /* \"#utility.yul\":9014:9018   */\n      dup4\n        /* \"#utility.yul\":9010:9025   */\n      and\n        /* \"#utility.yul\":9000:9025   */\n      swap2\n      pop\n        /* \"#utility.yul\":8913:9031   */\n      pop\n        /* \"#utility.yul\":8862:9031   */\n      swap3\n      swap2\n      pop\n      pop\n      jump\t// out\n        /* \"#utility.yul\":9036:9331   */\n    tag_71:\n        /* \"#utility.yul\":9112:9116   */\n      0x00\n        /* \"#utility.yul\":9258:9287   */\n      tag_184\n        /* \"#utility.yul\":9283:9286   */\n      dup4\n        /* \"#utility.yul\":9277:9281   */\n      dup4\n        /* \"#utility.yul\":9258:9287   */\n      tag_70\n      jump\t// in\n    tag_184:\n        /* \"#utility.yul\":9250:9287   */\n      swap2\n      pop\n        /* \"#utility.yul\":9320:9323   */\n      dup3\n        /* \"#utility.yul\":9317:9318   */\n      0x02\n        /* \"#utility.yul\":9313:9324   */\n      mul\n        /* \"#utility.yul\":9307:9311   */\n      dup3\n        /* \"#utility.yul\":9304:9325   */\n      or\n        /* \"#utility.yul\":9296:9325   */\n      swap1\n      pop\n        /* \"#utility.yul\":9036:9331   */\n      swap3\n      swap2\n      pop\n      pop\n      jump\t// out\n        /* \"#utility.yul\":9336:10731   */\n    tag_18:\n        /* \"#utility.yul\":9453:9490   */\n      tag_186\n        /* \"#utility.yul\":9486:9489   */\n      dup3\n        /* \"#utility.yul\":9453:9490   */\n      tag_52\n      jump\t// in\n    tag_186:\n        /* \"#utility.yul\":9555:9573   */\n      0xffffffffffffffff\n        /* \"#utility.yul\":9547:9553   */\n      dup2\n        /* \"#utility.yul\":9544:9574   */\n      gt\n        /* \"#utility.yul\":9541:9597   */\n      iszero\n      tag_187\n      jumpi\n        /* \"#utility.yul\":9577:9595   */\n      tag_188\n      tag_41\n      jump\t// in\n    tag_188:\n        /* \"#utility.yul\":9541:9597   */\n    tag_187:\n        /* \"#utility.yul\":9621:9659   */\n      tag_189\n        /* \"#utility.yul\":9653:9657   */\n      dup3\n        /* \"#utility.yul\":9647:9658   */\n      sload\n        /* \"#utility.yul\":9621:9659   */\n      tag_26\n      jump\t// in\n    tag_189:\n        /* \"#utility.yul\":9706:9773   */\n      tag_190\n        /* \"#utility.yul\":9766:9772   */\n      dup3\n        /* \"#utility.yul\":9758:9764   */\n      dup3\n        /* \"#utility.yul\":9752:9756   */\n      dup6\n        /* \"#utility.yul\":9706:9773   */\n      tag_68\n      jump\t// in\n    tag_190:\n        /* \"#utility.yul\":9800:9801   */\n      0x00\n        /* \"#utility.yul\":9824:9828   */\n      0x20\n        /* \"#utility.yul\":9811:9828   */\n      swap1\n      pop\n        /* \"#utility.yul\":9856:9858   */\n      0x1f\n        /* \"#utility.yul\":9848:9854   */\n      dup4\n        /* \"#utility.yul\":9845:9859   */\n      gt\n        /* \"#utility.yul\":9873:9874   */\n      0x01\n        /* \"#utility.yul\":9868:10486   */\n      dup2\n      eq\n      tag_192\n      jumpi\n        /* \"#utility.yul\":10530:10531   */\n      0x00\n        /* \"#utility.yul\":10547:10553   */\n      dup5\n        /* \"#utility.yul\":10544:10621   */\n      iszero\n      tag_193\n      jumpi\n        /* \"#utility.yul\":10596:10605   */\n      dup3\n        /* \"#utility.yul\":10591:10594   */\n      dup8\n        /* \"#utility.yul\":10587:10606   */\n      add\n        /* \"#utility.yul\":10581:10607   */\n      mload\n        /* \"#utility.yul\":10572:10607   */\n      swap1\n      pop\n        /* \"#utility.yul\":10544:10621   */\n    tag_193:\n        /* \"#utility.yul\":10647:10714   */\n      tag_194\n        /* \"#utility.yul\":10707:10713   */\n      dup6\n        /* \"#utility.yul\":10700:10705   */\n      dup3\n        /* \"#utility.yul\":10647:10714   */\n      tag_71\n      jump\t// in\n    tag_194:\n        /* \"#utility.yul\":10641:10645   */\n      dup7\n        /* \"#utility.yul\":10634:10715   */\n      sstore\n        /* \"#utility.yul\":10503:10725   */\n      pop\n        /* \"#utility.yul\":9838:10725   */\n      jump(tag_191)\n        /* \"#utility.yul\":9868:10486   */\n    tag_192:\n        /* \"#utility.yul\":9920:9924   */\n      0x1f\n        /* \"#utility.yul\":9916:9925   */\n      not\n        /* \"#utility.yul\":9908:9914   */\n      dup5\n        /* \"#utility.yul\":9904:9926   */\n      and\n        /* \"#utility.yul\":9954:9991   */\n      tag_195\n        /* \"#utility.yul\":9986:9990   */\n      dup7\n        /* \"#utility.yul\":9954:9991   */\n      tag_57\n      jump\t// in\n    tag_195:\n        /* \"#utility.yul\":10013:10014   */\n      0x00\n        /* \"#utility.yul\":10027:10235   */\n    tag_196:\n        /* \"#utility.yul\":10041:10048   */\n      dup3\n        /* \"#utility.yul\":10038:10039   */\n      dup2\n        /* \"#utility.yul\":10035:10049   */\n      lt\n        /* \"#utility.yul\":10027:10235   */\n      iszero\n      tag_198\n      jumpi\n        /* \"#utility.yul\":10120:10129   */\n      dup5\n        /* \"#utility.yul\":10115:10118   */\n      dup10\n        /* \"#utility.yul\":10111:10130   */\n      add\n        /* \"#utility.yul\":10105:10131   */\n      mload\n        /* \"#utility.yul\":10097:10103   */\n      dup3\n        /* \"#utility.yul\":10090:10132   */\n      sstore\n        /* \"#utility.yul\":10171:10172   */\n      0x01\n        /* \"#utility.yul\":10163:10169   */\n      dup3\n        /* \"#utility.yul\":10159:10173   */\n      add\n        /* \"#utility.yul\":10149:10173   */\n      swap2\n      pop\n        /* \"#utility.yul\":10218:10220   */\n      0x20\n        /* \"#utility.yul\":10207:10216   */\n      dup6\n        /* \"#utility.yul\":10203:10221   */\n      add\n        /* \"#utility.yul\":10190:10221   */\n      swap5\n      pop\n        /* \"#utility.yul\":10064:10068   */\n      0x20\n        /* \"#utility.yul\":10061:10062   */\n      dup2\n        /* \"#utility.yul\":10057:10069   */\n      add\n        /* \"#utility.yul\":10052:10069   */\n      swap1\n      pop\n        /* \"#utility.yul\":10027:10235   */\n      jump(tag_196)\n    tag_198:\n        /* \"#utility.yul\":10263:10269   */\n      dup7\n        /* \"#utility.yul\":10254:10261   */\n      dup4\n        /* \"#utility.yul\":10251:10270   */\n      lt\n        /* \"#utility.yul\":10248:10427   */\n      iszero\n      tag_199\n      jumpi\n        /* \"#utility.yul\":10321:10330   */\n      dup5\n        /* \"#utility.yul\":10316:10319   */\n      dup10\n        /* \"#utility.yul\":10312:10331   */\n      add\n        /* \"#utility.yul\":10306:10332   */\n      mload\n        /* \"#utility.yul\":10364:10412   */\n      tag_200\n        /* \"#utility.yul\":10406:10410   */\n      0x1f\n        /* \"#utility.yul\":10398:10404   */\n      dup10\n        /* \"#utility.yul\":10394:10411   */\n      and\n        /* \"#utility.yul\":10383:10392   */\n      dup3\n        /* \"#utility.yul\":10364:10412   */\n      tag_70\n      jump\t// in\n    tag_200:\n        /* \"#utility.yul\":10356:10362   */\n      dup4\n        /* \"#utility.yul\":10349:10413   */\n      sstore\n        /* \"#utility.yul\":10271:10427   */\n      pop\n        /* \"#utility.yul\":10248:10427   */\n    tag_199:\n        /* \"#utility.yul\":10473:10474   */\n      0x01\n        /* \"#utility.yul\":10469:10470   */\n      0x02\n        /* \"#utility.yul\":10461:10467   */\n      dup9\n        /* \"#utility.yul\":10457:10471   */\n      mul\n        /* \"#utility.yul\":10453:10475   */\n      add\n        /* \"#utility.yul\":10447:10451   */\n      dup9\n        /* \"#utility.yul\":10440:10476   */\n      sstore\n        /* \"#utility.yul\":9875:10486   */\n      pop\n      pop\n      pop\n        /* \"#utility.yul\":9838:10725   */\n    tag_191:\n      pop\n        /* \"#utility.yul\":9428:10731   */\n      pop\n      pop\n      pop\n        /* \"#utility.yul\":9336:10731   */\n      pop\n      pop\n      jump\t// out\n        /* \"#utility.yul\":10737:10917   */\n    tag_72:\n        /* \"#utility.yul\":10785:10862   */\n      0x4e487b7100000000000000000000000000000000000000000000000000000000\n        /* \"#utility.yul\":10782:10783   */\n      0x00\n        /* \"#utility.yul\":10775:10863   */\n      mstore\n        /* \"#utility.yul\":10882:10886   */\n      0x11\n        /* \"#utility.yul\":10879:10880   */\n      0x04\n        /* \"#utility.yul\":10872:10887   */\n      mstore\n        /* \"#utility.yul\":10906:10910   */\n      0x24\n        /* \"#utility.yul\":10903:10904   */\n      0x00\n        /* \"#utility.yul\":10896:10911   */\n      revert\n        /* \"#utility.yul\":10923:11117   */\n    tag_20:\n        /* \"#utility.yul\":10963:10967   */\n      0x00\n        /* \"#utility.yul\":10983:11003   */\n      tag_203\n        /* \"#utility.yul\":11001:11002   */\n      dup3\n        /* \"#utility.yul\":10983:11003   */\n      tag_48\n      jump\t// in\n    tag_203:\n        /* \"#utility.yul\":10978:11003   */\n      swap2\n      pop\n        /* \"#utility.yul\":11017:11037   */\n      tag_204\n        /* \"#utility.yul\":11035:11036   */\n      dup4\n        /* \"#utility.yul\":11017:11037   */\n      tag_48\n      jump\t// in\n    tag_204:\n        /* \"#utility.yul\":11012:11037   */\n      swap3\n      pop\n        /* \"#utility.yul\":11061:11062   */\n      dup3\n        /* \"#utility.yul\":11058:11059   */\n      dup3\n        /* \"#utility.yul\":11054:11063   */\n      sub\n        /* \"#utility.yul\":11046:11063   */\n      swap1\n      pop\n        /* \"#utility.yul\":11085:11086   */\n      dup2\n        /* \"#utility.yul\":11079:11083   */\n      dup2\n        /* \"#utility.yul\":11076:11087   */\n      gt\n        /* \"#utility.yul\":11073:11110   */\n      iszero\n      tag_205\n      jumpi\n        /* \"#utility.yul\":11090:11108   */\n      tag_206\n      tag_72\n      jump\t// in\n    tag_206:\n        /* \"#utility.yul\":11073:11110   */\n    tag_205:\n        /* \"#utility.yul\":10923:11117   */\n      swap3\n      swap2\n      pop\n      pop\n      jump\t// out\n        /* \"#utility.yul\":11123:11241   */\n    tag_73:\n        /* \"#utility.yul\":11210:11234   */\n      tag_208\n        /* \"#utility.yul\":11228:11233   */\n      dup2\n        /* \"#utility.yul\":11210:11234   */\n      tag_48\n      jump\t// in\n    tag_208:\n        /* \"#utility.yul\":11205:11208   */\n      dup3\n        /* \"#utility.yul\":11198:11235   */\n      mstore\n        /* \"#utility.yul\":11123:11241   */\n      pop\n      pop\n      jump\t// out\n        /* \"#utility.yul\":11247:11891   */\n    tag_22:\n        /* \"#utility.yul\":11444:11448   */\n      0x00\n        /* \"#utility.yul\":11482:11485   */\n      0x80\n        /* \"#utility.yul\":11471:11480   */\n      dup3\n        /* \"#utility.yul\":11467:11486   */\n      add\n        /* \"#utility.yul\":11459:11486   */\n      swap1\n      pop\n        /* \"#utility.yul\":11496:11567   */\n      tag_210\n        /* \"#utility.yul\":11564:11565   */\n      0x00\n        /* \"#utility.yul\":11553:11562   */\n      dup4\n        /* \"#utility.yul\":11549:11566   */\n      add\n        /* \"#utility.yul\":11540:11546   */\n      dup8\n        /* \"#utility.yul\":11496:11567   */\n      tag_73\n      jump\t// in\n    tag_210:\n        /* \"#utility.yul\":11577:11649   */\n      tag_211\n        /* \"#utility.yul\":11645:11647   */\n      0x20\n        /* \"#utility.yul\":11634:11643   */\n      dup4\n        /* \"#utility.yul\":11630:11648   */\n      add\n        /* \"#utility.yul\":11621:11627   */\n      dup7\n        /* \"#utility.yul\":11577:11649   */\n      tag_51\n      jump\t// in\n    tag_211:\n        /* \"#utility.yul\":11659:11731   */\n      tag_212\n        /* \"#utility.yul\":11727:11729   */\n      0x40\n        /* \"#utility.yul\":11716:11725   */\n      dup4\n        /* \"#utility.yul\":11712:11730   */\n      add\n        /* \"#utility.yul\":11703:11709   */\n      dup6\n        /* \"#utility.yul\":11659:11731   */\n      tag_51\n      jump\t// in\n    tag_212:\n        /* \"#utility.yul\":11778:11787   */\n      dup2\n        /* \"#utility.yul\":11772:11776   */\n      dup2\n        /* \"#utility.yul\":11768:11788   */\n      sub\n        /* \"#utility.yul\":11763:11765   */\n      0x60\n        /* \"#utility.yul\":11752:11761   */\n      dup4\n        /* \"#utility.yul\":11748:11766   */\n      add\n        /* \"#utility.yul\":11741:11789   */\n      mstore\n        /* \"#utility.yul\":11806:11884   */\n      tag_213\n        /* \"#utility.yul\":11879:11883   */\n      dup2\n        /* \"#utility.yul\":11870:11876   */\n      dup5\n        /* \"#utility.yul\":11806:11884   */\n      tag_55\n      jump\t// in\n    tag_213:\n        /* \"#utility.yul\":11798:11884   */\n      swap1\n      pop\n        /* \"#utility.yul\":11247:11891   */\n      swap6\n      swap5\n      pop\n      pop\n      pop\n      pop\n      pop\n      jump\t// out\n\n    auxdata: 0xa2646970667358221220d6953617953d20662e4dd75ccea7756ff8890abb308ecd63c938989f69673e3564736f6c634300081e0033\n}\n",
				"bytecode": {
					"linkReferences": {},
					"object": "6080604052348015600e575f5ffd5b506109a48061001c5f395ff3fe608060405234801561000f575f5ffd5b5060043610610034575f3560e01c80632bd7aa291461003857806383c4b7a314610054575b5f5ffd5b610052600480360381019061004d9190610486565b610086565b005b61006e60048036038101906100699190610513565b6101e7565b60405161007d939291906105ad565b60405180910390f35b5f60405180606001604052803373ffffffffffffffffffffffffffffffffffffffff1681526020018473ffffffffffffffffffffffffffffffffffffffff16815260200183815250908060018154018082558091505060019003905f5260205f2090600302015f909190919091505f820151815f015f6101000a81548173ffffffffffffffffffffffffffffffffffffffff021916908373ffffffffffffffffffffffffffffffffffffffff1602179055506020820151816001015f6101000a81548173ffffffffffffffffffffffffffffffffffffffff021916908373ffffffffffffffffffffffffffffffffffffffff160217905550604082015181600201908161019391906107e6565b5050507f1dfe82c5d0a1120729f73846b61a1f89fc08cb2a60e15e6597a5cc15a92511fe60015f805490506101c891906108e2565b3384846040516101db9493929190610924565b60405180910390a15050565b5f81815481106101f5575f80fd5b905f5260205f2090600302015f91509050805f015f9054906101000a900473ffffffffffffffffffffffffffffffffffffffff1690806001015f9054906101000a900473ffffffffffffffffffffffffffffffffffffffff169080600201805461025e90610616565b80601f016020809104026020016040519081016040528092919081815260200182805461028a90610616565b80156102d55780601f106102ac576101008083540402835291602001916102d5565b820191905f5260205f20905b8154815290600101906020018083116102b857829003601f168201915b5050505050905083565b5f604051905090565b5f5ffd5b5f5ffd5b5f73ffffffffffffffffffffffffffffffffffffffff82169050919050565b5f610319826102f0565b9050919050565b6103298161030f565b8114610333575f5ffd5b50565b5f8135905061034481610320565b92915050565b5f5ffd5b5f5ffd5b5f601f19601f8301169050919050565b7f4e487b71000000000000000000000000000000000000000000000000000000005f52604160045260245ffd5b61039882610352565b810181811067ffffffffffffffff821117156103b7576103b6610362565b5b80604052505050565b5f6103c96102df565b90506103d5828261038f565b919050565b5f67ffffffffffffffff8211156103f4576103f3610362565b5b6103fd82610352565b9050602081019050919050565b828183375f83830152505050565b5f61042a610425846103da565b6103c0565b9050828152602081018484840111156104465761044561034e565b5b61045184828561040a565b509392505050565b5f82601f83011261046d5761046c61034a565b5b813561047d848260208601610418565b91505092915050565b5f5f6040838503121561049c5761049b6102e8565b5b5f6104a985828601610336565b925050602083013567ffffffffffffffff8111156104ca576104c96102ec565b5b6104d685828601610459565b9150509250929050565b5f819050919050565b6104f2816104e0565b81146104fc575f5ffd5b50565b5f8135905061050d816104e9565b92915050565b5f60208284031215610528576105276102e8565b5b5f610535848285016104ff565b91505092915050565b6105478161030f565b82525050565b5f81519050919050565b5f82825260208201905092915050565b8281835e5f83830152505050565b5f61057f8261054d565b6105898185610557565b9350610599818560208601610567565b6105a281610352565b840191505092915050565b5f6060820190506105c05f83018661053e565b6105cd602083018561053e565b81810360408301526105df8184610575565b9050949350505050565b7f4e487b71000000000000000000000000000000000000000000000000000000005f52602260045260245ffd5b5f600282049050600182168061062d57607f821691505b6020821081036106405761063f6105e9565b5b50919050565b5f819050815f5260205f209050919050565b5f6020601f8301049050919050565b5f82821b905092915050565b5f600883026106a27fffffffffffffffffffffffffffffffffffffffffffffffffffffffffffffffff82610667565b6106ac8683610667565b95508019841693508086168417925050509392505050565b5f819050919050565b5f6106e76106e26106dd846104e0565b6106c4565b6104e0565b9050919050565b5f819050919050565b610700836106cd565b61071461070c826106ee565b848454610673565b825550505050565b5f5f905090565b61072b61071c565b6107368184846106f7565b505050565b5b818110156107595761074e5f82610723565b60018101905061073c565b5050565b601f82111561079e5761076f81610646565b61077884610658565b81016020851015610787578190505b61079b61079385610658565b83018261073b565b50505b505050565b5f82821c905092915050565b5f6107be5f19846008026107a3565b1980831691505092915050565b5f6107d683836107af565b9150826002028217905092915050565b6107ef8261054d565b67ffffffffffffffff81111561080857610807610362565b5b6108128254610616565b61081d82828561075d565b5f60209050601f83116001811461084e575f841561083c578287015190505b61084685826107cb565b8655506108ad565b601f19841661085c86610646565b5f5b828110156108835784890151825560018201915060208501945060208101905061085e565b868310156108a0578489015161089c601f8916826107af565b8355505b6001600288020188555050505b505050505050565b7f4e487b71000000000000000000000000000000000000000000000000000000005f52601160045260245ffd5b5f6108ec826104e0565b91506108f7836104e0565b925082820390508181111561090f5761090e6108b5565b5b92915050565b61091e816104e0565b82525050565b5f6080820190506109375f830187610915565b610944602083018661053e565b610951604083018561053e565b81810360608301526109638184610575565b90509594505050505056fea2646970667358221220d6953617953d20662e4dd75ccea7756ff8890abb308ecd63c938989f69673e3564736f6c634300081e0033",
					"opcodes": "PUSH1 0x80 PUSH1 0x40 MSTORE CALLVALUE DUP1 ISZERO PUSH1 0xE JUMPI PUSH0 PUSH0 REVERT JUMPDEST POP PUSH2 0x9A4 DUP1 PUSH2 0x1C PUSH0 CODECOPY PUSH0 RETURN INVALID PUSH1 0x80 PUSH1 0x40 MSTORE CALLVALUE DUP1 ISZERO PUSH2 0xF JUMPI PUSH0 PUSH0 REVERT JUMPDEST POP PUSH1 0x4 CALLDATASIZE LT PUSH2 0x34 JUMPI PUSH0 CALLDATALOAD PUSH1 0xE0 SHR DUP1 PUSH4 0x2BD7AA29 EQ PUSH2 0x38 JUMPI DUP1 PUSH4 0x83C4B7A3 EQ PUSH2 0x54 JUMPI JUMPDEST PUSH0 PUSH0 REVERT JUMPDEST PUSH2 0x52 PUSH1 0x4 DUP1 CALLDATASIZE SUB DUP2 ADD SWAP1 PUSH2 0x4D SWAP2 SWAP1 PUSH2 0x486 JUMP JUMPDEST PUSH2 0x86 JUMP JUMPDEST STOP JUMPDEST PUSH2 0x6E PUSH1 0x4 DUP1 CALLDATASIZE SUB DUP2 ADD SWAP1 PUSH2 0x69 SWAP2 SWAP1 PUSH2 0x513 JUMP JUMPDEST PUSH2 0x1E7 JUMP JUMPDEST PUSH1 0x40 MLOAD PUSH2 0x7D SWAP4 SWAP3 SWAP2 SWAP1 PUSH2 0x5AD JUMP JUMPDEST PUSH1 0x40 MLOAD DUP1 SWAP2 SUB SWAP1 RETURN JUMPDEST PUSH0 PUSH1 0x40 MLOAD DUP1 PUSH1 0x60 ADD PUSH1 0x40 MSTORE DUP1 CALLER PUSH20 0xFFFFFFFFFFFFFFFFFFFFFFFFFFFFFFFFFFFFFFFF AND DUP2 MSTORE PUSH1 0x20 ADD DUP5 PUSH20 0xFFFFFFFFFFFFFFFFFFFFFFFFFFFFFFFFFFFFFFFF AND DUP2 MSTORE PUSH1 0x20 ADD DUP4 DUP2 MSTORE POP SWAP1 DUP1 PUSH1 0x1 DUP2 SLOAD ADD DUP1 DUP3 SSTORE DUP1 SWAP2 POP POP PUSH1 0x1 SWAP1 SUB SWAP1 PUSH0 MSTORE PUSH1 0x20 PUSH0 KECCAK256 SWAP1 PUSH1 0x3 MUL ADD PUSH0 SWAP1 SWAP2 SWAP1 SWAP2 SWAP1 SWAP2 POP PUSH0 DUP3 ADD MLOAD DUP2 PUSH0 ADD PUSH0 PUSH2 0x100 EXP DUP2 SLOAD DUP2 PUSH20 0xFFFFFFFFFFFFFFFFFFFFFFFFFFFFFFFFFFFFFFFF MUL NOT AND SWAP1 DUP4 PUSH20 0xFFFFFFFFFFFFFFFFFFFFFFFFFFFFFFFFFFFFFFFF AND MUL OR SWAP1 SSTORE POP PUSH1 0x20 DUP3 ADD MLOAD DUP2 PUSH1 0x1 ADD PUSH0 PUSH2 0x100 EXP DUP2 SLOAD DUP2 PUSH20 0xFFFFFFFFFFFFFFFFFFFFFFFFFFFFFFFFFFFFFFFF MUL NOT AND SWAP1 DUP4 PUSH20 0xFFFFFFFFFFFFFFFFFFFFFFFFFFFFFFFFFFFFFFFF AND MUL OR SWAP1 SSTORE POP PUSH1 0x40 DUP3 ADD MLOAD DUP2 PUSH1 0x2 ADD SWAP1 DUP2 PUSH2 0x193 SWAP2 SWAP1 PUSH2 0x7E6 JUMP JUMPDEST POP POP POP PUSH32 0x1DFE82C5D0A1120729F73846B61A1F89FC08CB2A60E15E6597A5CC15A92511FE PUSH1 0x1 PUSH0 DUP1 SLOAD SWAP1 POP PUSH2 0x1C8 SWAP2 SWAP1 PUSH2 0x8E2 JUMP JUMPDEST CALLER DUP5 DUP5 PUSH1 0x40 MLOAD PUSH2 0x1DB SWAP5 SWAP4 SWAP3 SWAP2 SWAP1 PUSH2 0x924 JUMP JUMPDEST PUSH1 0x40 MLOAD DUP1 SWAP2 SUB SWAP1 LOG1 POP POP JUMP JUMPDEST PUSH0 DUP2 DUP2 SLOAD DUP2 LT PUSH2 0x1F5 JUMPI PUSH0 DUP1 REVERT JUMPDEST SWAP1 PUSH0 MSTORE PUSH1 0x20 PUSH0 KECCAK256 SWAP1 PUSH1 0x3 MUL ADD PUSH0 SWAP2 POP SWAP1 POP DUP1 PUSH0 ADD PUSH0 SWAP1 SLOAD SWAP1 PUSH2 0x100 EXP SWAP1 DIV PUSH20 0xFFFFFFFFFFFFFFFFFFFFFFFFFFFFFFFFFFFFFFFF AND SWAP1 DUP1 PUSH1 0x1 ADD PUSH0 SWAP1 SLOAD SWAP1 PUSH2 0x100 EXP SWAP1 DIV PUSH20 0xFFFFFFFFFFFFFFFFFFFFFFFFFFFFFFFFFFFFFFFF AND SWAP1 DUP1 PUSH1 0x2 ADD DUP1 SLOAD PUSH2 0x25E SWAP1 PUSH2 0x616 JUMP JUMPDEST DUP1 PUSH1 0x1F ADD PUSH1 0x20 DUP1 SWAP2 DIV MUL PUSH1 0x20 ADD PUSH1 0x40 MLOAD SWAP1 DUP2 ADD PUSH1 0x40 MSTORE DUP1 SWAP3 SWAP2 SWAP1 DUP2 DUP2 MSTORE PUSH1 0x20 ADD DUP3 DUP1 SLOAD PUSH2 0x28A SWAP1 PUSH2 0x616 JUMP JUMPDEST DUP1 ISZERO PUSH2 0x2D5 JUMPI DUP1 PUSH1 0x1F LT PUSH2 0x2AC JUMPI PUSH2 0x100 DUP1 DUP4 SLOAD DIV MUL DUP4 MSTORE SWAP2 PUSH1 0x20 ADD SWAP2 PUSH2 0x2D5 JUMP JUMPDEST DUP3 ADD SWAP2 SWAP1 PUSH0 MSTORE PUSH1 0x20 PUSH0 KECCAK256 SWAP1 JUMPDEST DUP2 SLOAD DUP2 MSTORE SWAP1 PUSH1 0x1 ADD SWAP1 PUSH1 0x20 ADD DUP1 DUP4 GT PUSH2 0x2B8 JUMPI DUP3 SWAP1 SUB PUSH1 0x1F AND DUP3 ADD SWAP2 JUMPDEST POP POP POP POP POP SWAP1 POP DUP4 JUMP JUMPDEST PUSH0 PUSH1 0x40 MLOAD SWAP1 POP SWAP1 JUMP JUMPDEST PUSH0 PUSH0 REVERT JUMPDEST PUSH0 PUSH0 REVERT JUMPDEST PUSH0 PUSH20 0xFFFFFFFFFFFFFFFFFFFFFFFFFFFFFFFFFFFFFFFF DUP3 AND SWAP1 POP SWAP2 SWAP1 POP JUMP JUMPDEST PUSH0 PUSH2 0x319 DUP3 PUSH2 0x2F0 JUMP JUMPDEST SWAP1 POP SWAP2 SWAP1 POP JUMP JUMPDEST PUSH2 0x329 DUP2 PUSH2 0x30F JUMP JUMPDEST DUP2 EQ PUSH2 0x333 JUMPI PUSH0 PUSH0 REVERT JUMPDEST POP JUMP JUMPDEST PUSH0 DUP2 CALLDATALOAD SWAP1 POP PUSH2 0x344 DUP2 PUSH2 0x320 JUMP JUMPDEST SWAP3 SWAP2 POP POP JUMP JUMPDEST PUSH0 PUSH0 REVERT JUMPDEST PUSH0 PUSH0 REVERT JUMPDEST PUSH0 PUSH1 0x1F NOT PUSH1 0x1F DUP4 ADD AND SWAP1 POP SWAP2 SWAP1 POP JUMP JUMPDEST PUSH32 0x4E487B7100000000000000000000000000000000000000000000000000000000 PUSH0 MSTORE PUSH1 0x41 PUSH1 0x4 MSTORE PUSH1 0x24 PUSH0 REVERT JUMPDEST PUSH2 0x398 DUP3 PUSH2 0x352 JUMP JUMPDEST DUP2 ADD DUP2 DUP2 LT PUSH8 0xFFFFFFFFFFFFFFFF DUP3 GT OR ISZERO PUSH2 0x3B7 JUMPI PUSH2 0x3B6 PUSH2 0x362 JUMP JUMPDEST JUMPDEST DUP1 PUSH1 0x40 MSTORE POP POP POP JUMP JUMPDEST PUSH0 PUSH2 0x3C9 PUSH2 0x2DF JUMP JUMPDEST SWAP1 POP PUSH2 0x3D5 DUP3 DUP3 PUSH2 0x38F JUMP JUMPDEST SWAP2 SWAP1 POP JUMP JUMPDEST PUSH0 PUSH8 0xFFFFFFFFFFFFFFFF DUP3 GT ISZERO PUSH2 0x3F4 JUMPI PUSH2 0x3F3 PUSH2 0x362 JUMP JUMPDEST JUMPDEST PUSH2 0x3FD DUP3 PUSH2 0x352 JUMP JUMPDEST SWAP1 POP PUSH1 0x20 DUP2 ADD SWAP1 POP SWAP2 SWAP1 POP JUMP JUMPDEST DUP3 DUP2 DUP4 CALLDATACOPY PUSH0 DUP4 DUP4 ADD MSTORE POP POP POP JUMP JUMPDEST PUSH0 PUSH2 0x42A PUSH2 0x425 DUP5 PUSH2 0x3DA JUMP JUMPDEST PUSH2 0x3C0 JUMP JUMPDEST SWAP1 POP DUP3 DUP2 MSTORE PUSH1 0x20 DUP2 ADD DUP5 DUP5 DUP5 ADD GT ISZERO PUSH2 0x446 JUMPI PUSH2 0x445 PUSH2 0x34E JUMP JUMPDEST JUMPDEST PUSH2 0x451 DUP5 DUP3 DUP6 PUSH2 0x40A JUMP JUMPDEST POP SWAP4 SWAP3 POP POP POP JUMP JUMPDEST PUSH0 DUP3 PUSH1 0x1F DUP4 ADD SLT PUSH2 0x46D JUMPI PUSH2 0x46C PUSH2 0x34A JUMP JUMPDEST JUMPDEST DUP2 CALLDATALOAD PUSH2 0x47D DUP5 DUP3 PUSH1 0x20 DUP7 ADD PUSH2 0x418 JUMP JUMPDEST SWAP2 POP POP SWAP3 SWAP2 POP POP JUMP JUMPDEST PUSH0 PUSH0 PUSH1 0x40 DUP4 DUP6 SUB SLT ISZERO PUSH2 0x49C JUMPI PUSH2 0x49B PUSH2 0x2E8 JUMP JUMPDEST JUMPDEST PUSH0 PUSH2 0x4A9 DUP6 DUP3 DUP7 ADD PUSH2 0x336 JUMP JUMPDEST SWAP3 POP POP PUSH1 0x20 DUP4 ADD CALLDATALOAD PUSH8 0xFFFFFFFFFFFFFFFF DUP2 GT ISZERO PUSH2 0x4CA JUMPI PUSH2 0x4C9 PUSH2 0x2EC JUMP JUMPDEST JUMPDEST PUSH2 0x4D6 DUP6 DUP3 DUP7 ADD PUSH2 0x459 JUMP JUMPDEST SWAP2 POP POP SWAP3 POP SWAP3 SWAP1 POP JUMP JUMPDEST PUSH0 DUP2 SWAP1 POP SWAP2 SWAP1 POP JUMP JUMPDEST PUSH2 0x4F2 DUP2 PUSH2 0x4E0 JUMP JUMPDEST DUP2 EQ PUSH2 0x4FC JUMPI PUSH0 PUSH0 REVERT JUMPDEST POP JUMP JUMPDEST PUSH0 DUP2 CALLDATALOAD SWAP1 POP PUSH2 0x50D DUP2 PUSH2 0x4E9 JUMP JUMPDEST SWAP3 SWAP2 POP POP JUMP JUMPDEST PUSH0 PUSH1 0x20 DUP3 DUP5 SUB SLT ISZERO PUSH2 0x528 JUMPI PUSH2 0x527 PUSH2 0x2E8 JUMP JUMPDEST JUMPDEST PUSH0 PUSH2 0x535 DUP5 DUP3 DUP6 ADD PUSH2 0x4FF JUMP JUMPDEST SWAP2 POP POP SWAP3 SWAP2 POP POP JUMP JUMPDEST PUSH2 0x547 DUP2 PUSH2 0x30F JUMP JUMPDEST DUP3 MSTORE POP POP JUMP JUMPDEST PUSH0 DUP2 MLOAD SWAP1 POP SWAP2 SWAP1 POP JUMP JUMPDEST PUSH0 DUP3 DUP3 MSTORE PUSH1 0x20 DUP3 ADD SWAP1 POP SWAP3 SWAP2 POP POP JUMP JUMPDEST DUP3 DUP2 DUP4 MCOPY PUSH0 DUP4 DUP4 ADD MSTORE POP POP POP JUMP JUMPDEST PUSH0 PUSH2 0x57F DUP3 PUSH2 0x54D JUMP JUMPDEST PUSH2 0x589 DUP2 DUP6 PUSH2 0x557 JUMP JUMPDEST SWAP4 POP PUSH2 0x599 DUP2 DUP6 PUSH1 0x20 DUP7 ADD PUSH2 0x567 JUMP JUMPDEST PUSH2 0x5A2 DUP2 PUSH2 0x352 JUMP JUMPDEST DUP5 ADD SWAP2 POP POP SWAP3 SWAP2 POP POP JUMP JUMPDEST PUSH0 PUSH1 0x60 DUP3 ADD SWAP1 POP PUSH2 0x5C0 PUSH0 DUP4 ADD DUP7 PUSH2 0x53E JUMP JUMPDEST PUSH2 0x5CD PUSH1 0x20 DUP4 ADD DUP6 PUSH2 0x53E JUMP JUMPDEST DUP2 DUP2 SUB PUSH1 0x40 DUP4 ADD MSTORE PUSH2 0x5DF DUP2 DUP5 PUSH2 0x575 JUMP JUMPDEST SWAP1 POP SWAP5 SWAP4 POP POP POP POP JUMP JUMPDEST PUSH32 0x4E487B7100000000000000000000000000000000000000000000000000000000 PUSH0 MSTORE PUSH1 0x22 PUSH1 0x4 MSTORE PUSH1 0x24 PUSH0 REVERT JUMPDEST PUSH0 PUSH1 0x2 DUP3 DIV SWAP1 POP PUSH1 0x1 DUP3 AND DUP1 PUSH2 0x62D JUMPI PUSH1 0x7F DUP3 AND SWAP2 POP JUMPDEST PUSH1 0x20 DUP3 LT DUP2 SUB PUSH2 0x640 JUMPI PUSH2 0x63F PUSH2 0x5E9 JUMP JUMPDEST JUMPDEST POP SWAP2 SWAP1 POP JUMP JUMPDEST PUSH0 DUP2 SWAP1 POP DUP2 PUSH0 MSTORE PUSH1 0x20 PUSH0 KECCAK256 SWAP1 POP SWAP2 SWAP1 POP JUMP JUMPDEST PUSH0 PUSH1 0x20 PUSH1 0x1F DUP4 ADD DIV SWAP1 POP SWAP2 SWAP1 POP JUMP JUMPDEST PUSH0 DUP3 DUP3 SHL SWAP1 POP SWAP3 SWAP2 POP POP JUMP JUMPDEST PUSH0 PUSH1 0x8 DUP4 MUL PUSH2 0x6A2 PUSH32 0xFFFFFFFFFFFFFFFFFFFFFFFFFFFFFFFFFFFFFFFFFFFFFFFFFFFFFFFFFFFFFFFF DUP3 PUSH2 0x667 JUMP JUMPDEST PUSH2 0x6AC DUP7 DUP4 PUSH2 0x667 JUMP JUMPDEST SWAP6 POP DUP1 NOT DUP5 AND SWAP4 POP DUP1 DUP7 AND DUP5 OR SWAP3 POP POP POP SWAP4 SWAP3 POP POP POP JUMP JUMPDEST PUSH0 DUP2 SWAP1 POP SWAP2 SWAP1 POP JUMP JUMPDEST PUSH0 PUSH2 0x6E7 PUSH2 0x6E2 PUSH2 0x6DD DUP5 PUSH2 0x4E0 JUMP JUMPDEST PUSH2 0x6C4 JUMP JUMPDEST PUSH2 0x4E0 JUMP JUMPDEST SWAP1 POP SWAP2 SWAP1 POP JUMP JUMPDEST PUSH0 DUP2 SWAP1 POP SWAP2 SWAP1 POP JUMP JUMPDEST PUSH2 0x700 DUP4 PUSH2 0x6CD JUMP JUMPDEST PUSH2 0x714 PUSH2 0x70C DUP3 PUSH2 0x6EE JUMP JUMPDEST DUP5 DUP5 SLOAD PUSH2 0x673 JUMP JUMPDEST DUP3 SSTORE POP POP POP POP JUMP JUMPDEST PUSH0 PUSH0 SWAP1 POP SWAP1 JUMP JUMPDEST PUSH2 0x72B PUSH2 0x71C JUMP JUMPDEST PUSH2 0x736 DUP2 DUP5 DUP5 PUSH2 0x6F7 JUMP JUMPDEST POP POP POP JUMP JUMPDEST JUMPDEST DUP2 DUP2 LT ISZERO PUSH2 0x759 JUMPI PUSH2 0x74E PUSH0 DUP3 PUSH2 0x723 JUMP JUMPDEST PUSH1 0x1 DUP2 ADD SWAP1 POP PUSH2 0x73C JUMP JUMPDEST POP POP JUMP JUMPDEST PUSH1 0x1F DUP3 GT ISZERO PUSH2 0x79E JUMPI PUSH2 0x76F DUP2 PUSH2 0x646 JUMP JUMPDEST PUSH2 0x778 DUP5 PUSH2 0x658 JUMP JUMPDEST DUP2 ADD PUSH1 0x20 DUP6 LT ISZERO PUSH2 0x787 JUMPI DUP2 SWAP1 POP JUMPDEST PUSH2 0x79B PUSH2 0x793 DUP6 PUSH2 0x658 JUMP JUMPDEST DUP4 ADD DUP3 PUSH2 0x73B JUMP JUMPDEST POP POP JUMPDEST POP POP POP JUMP JUMPDEST PUSH0 DUP3 DUP3 SHR SWAP1 POP SWAP3 SWAP2 POP POP JUMP JUMPDEST PUSH0 PUSH2 0x7BE PUSH0 NOT DUP5 PUSH1 0x8 MUL PUSH2 0x7A3 JUMP JUMPDEST NOT DUP1 DUP4 AND SWAP2 POP POP SWAP3 SWAP2 POP POP JUMP JUMPDEST PUSH0 PUSH2 0x7D6 DUP4 DUP4 PUSH2 0x7AF JUMP JUMPDEST SWAP2 POP DUP3 PUSH1 0x2 MUL DUP3 OR SWAP1 POP SWAP3 SWAP2 POP POP JUMP JUMPDEST PUSH2 0x7EF DUP3 PUSH2 0x54D JUMP JUMPDEST PUSH8 0xFFFFFFFFFFFFFFFF DUP2 GT ISZERO PUSH2 0x808 JUMPI PUSH2 0x807 PUSH2 0x362 JUMP JUMPDEST JUMPDEST PUSH2 0x812 DUP3 SLOAD PUSH2 0x616 JUMP JUMPDEST PUSH2 0x81D DUP3 DUP3 DUP6 PUSH2 0x75D JUMP JUMPDEST PUSH0 PUSH1 0x20 SWAP1 POP PUSH1 0x1F DUP4 GT PUSH1 0x1 DUP2 EQ PUSH2 0x84E JUMPI PUSH0 DUP5 ISZERO PUSH2 0x83C JUMPI DUP3 DUP8 ADD MLOAD SWAP1 POP JUMPDEST PUSH2 0x846 DUP6 DUP3 PUSH2 0x7CB JUMP JUMPDEST DUP7 SSTORE POP PUSH2 0x8AD JUMP JUMPDEST PUSH1 0x1F NOT DUP5 AND PUSH2 0x85C DUP7 PUSH2 0x646 JUMP JUMPDEST PUSH0 JUMPDEST DUP3 DUP2 LT ISZERO PUSH2 0x883 JUMPI DUP5 DUP10 ADD MLOAD DUP3 SSTORE PUSH1 0x1 DUP3 ADD SWAP2 POP PUSH1 0x20 DUP6 ADD SWAP5 POP PUSH1 0x20 DUP2 ADD SWAP1 POP PUSH2 0x85E JUMP JUMPDEST DUP7 DUP4 LT ISZERO PUSH2 0x8A0 JUMPI DUP5 DUP10 ADD MLOAD PUSH2 0x89C PUSH1 0x1F DUP10 AND DUP3 PUSH2 0x7AF JUMP JUMPDEST DUP4 SSTORE POP JUMPDEST PUSH1 0x1 PUSH1 0x2 DUP9 MUL ADD DUP9 SSTORE POP POP POP JUMPDEST POP POP POP POP POP POP JUMP JUMPDEST PUSH32 0x4E487B7100000000000000000000000000000000000000000000000000000000 PUSH0 MSTORE PUSH1 0x11 PUSH1 0x4 MSTORE PUSH1 0x24 PUSH0 REVERT JUMPDEST PUSH0 PUSH2 0x8EC DUP3 PUSH2 0x4E0 JUMP JUMPDEST SWAP2 POP PUSH2 0x8F7 DUP4 PUSH2 0x4E0 JUMP JUMPDEST SWAP3 POP DUP3 DUP3 SUB SWAP1 POP DUP2 DUP2 GT ISZERO PUSH2 0x90F JUMPI PUSH2 0x90E PUSH2 0x8B5 JUMP JUMPDEST JUMPDEST SWAP3 SWAP2 POP POP JUMP JUMPDEST PUSH2 0x91E DUP2 PUSH2 0x4E0 JUMP JUMPDEST DUP3 MSTORE POP POP JUMP JUMPDEST PUSH0 PUSH1 0x80 DUP3 ADD SWAP1 POP PUSH2 0x937 PUSH0 DUP4 ADD DUP8 PUSH2 0x915 JUMP JUMPDEST PUSH2 0x944 PUSH1 0x20 DUP4 ADD DUP7 PUSH2 0x53E JUMP JUMPDEST PUSH2 0x951 PUSH1 0x40 DUP4 ADD DUP6 PUSH2 0x53E JUMP JUMPDEST DUP2 DUP2 SUB PUSH1 0x60 DUP4 ADD MSTORE PUSH2 0x963 DUP2 DUP5 PUSH2 0x575 JUMP JUMPDEST SWAP1 POP SWAP6 SWAP5 POP POP POP POP POP JUMP INVALID LOG2 PUSH5 0x6970667358 0x22 SLT KECCAK256 0xD6 SWAP6 CALLDATASIZE OR SWAP6 RETURNDATASIZE KECCAK256 PUSH7 0x2E4DD75CCEA775 PUSH16 0xF8890ABB308ECD63C938989F69673E35 PUSH5 0x736F6C6343 STOP ADDMOD 0x1E STOP CALLER "
				},
				"gasEstimates": {
					"creation": {
						"codeDepositCost": "493600",
						"executionCost": "528",
						"totalCost": "494128"
					},
					"external": {
						"createSession(address,string)": "infinite",
						"sessions(uint256)": "infinite"
					}
				},
				"methodIdentifiers": {
					"createSession(address,string)": "2bd7aa29",
					"sessions(uint256)": "83c4b7a3"
				}
			},
			"storageLayout": {
				"storage": [
					{
						"astId": 12,
						"contract": "skillsphere-app/rootstock-contracts/skillsphere.sol:SkillSharing",
						"label": "sessions",
						"offset": 0,
						"slot": "0",
						"type": "t_array(t_struct(Session)8_storage)dyn_storage"
					}
				],
				"types": {
					"t_address": {
						"encoding": "inplace",
						"label": "address",
						"numberOfBytes": "20"
					},
					"t_array(t_struct(Session)8_storage)dyn_storage": {
						"base": "t_struct(Session)8_storage",
						"encoding": "dynamic_array",
						"label": "struct SkillSharing.Session[]",
						"numberOfBytes": "32"
					},
					"t_string_storage": {
						"encoding": "bytes",
						"label": "string",
						"numberOfBytes": "32"
					},
					"t_struct(Session)8_storage": {
						"encoding": "inplace",
						"label": "struct SkillSharing.Session",
						"members": [
							{
								"astId": 3,
								"contract": "skillsphere-app/rootstock-contracts/skillsphere.sol:SkillSharing",
								"label": "teacher",
								"offset": 0,
								"slot": "0",
								"type": "t_address"
							},
							{
								"astId": 5,
								"contract": "skillsphere-app/rootstock-contracts/skillsphere.sol:SkillSharing",
								"label": "learner",
								"offset": 0,
								"slot": "1",
								"type": "t_address"
							},
							{
								"astId": 7,
								"contract": "skillsphere-app/rootstock-contracts/skillsphere.sol:SkillSharing",
								"label": "skill",
								"offset": 0,
								"slot": "2",
								"type": "t_string_storage"
							}
						],
						"numberOfBytes": "96"
					}
				}
			},
			"userdoc": {
				"kind": "user",
				"methods": {},
				"version": 1
			}
		}
	}
}